{
    "abi": [
        {
            "type": "constructor",
            "inputs": [
                {
                    "name": "entranceFee",
                    "type": "uint256",
                    "internalType": "uint256"
                },
                {
                    "name": "voteDuration",
                    "type": "uint256",
                    "internalType": "uint256"
                },
                {
                    "name": "registerDuration",
                    "type": "uint256",
                    "internalType": "uint256"
                }
            ],
            "stateMutability": "nonpayable"
        },
        {
            "type": "function",
            "name": "countPollResult",
            "inputs": [],
            "outputs": [],
            "stateMutability": "nonpayable"
        },
        {
            "type": "function",
            "name": "forceSetPhase",
            "inputs": [
                {
                    "name": "_phase",
                    "type": "uint8",
                    "internalType": "enum TrustPoll.PollPhase"
                }
            ],
            "outputs": [],
            "stateMutability": "nonpayable"
        },
        {
            "type": "function",
            "name": "getEntranceFee",
            "inputs": [],
            "outputs": [
                {
                    "name": "",
                    "type": "uint256",
                    "internalType": "uint256"
                }
            ],
            "stateMutability": "view"
        },
        {
            "type": "function",
            "name": "getPollPhase",
            "inputs": [],
            "outputs": [
                {
                    "name": "",
                    "type": "uint8",
                    "internalType": "enum TrustPoll.PollPhase"
                }
            ],
            "stateMutability": "view"
        },
        {
            "type": "function",
            "name": "getPollResult",
            "inputs": [],
            "outputs": [
                {
                    "name": "winner",
                    "type": "address",
                    "internalType": "address"
                },
                {
                    "name": "votes",
                    "type": "uint256[]",
                    "internalType": "uint256[]"
                }
            ],
            "stateMutability": "view"
        },
        {
            "type": "function",
            "name": "getRegisterDuration",
            "inputs": [],
            "outputs": [
                {
                    "name": "",
                    "type": "uint256",
                    "internalType": "uint256"
                }
            ],
            "stateMutability": "view"
        },
        {
            "type": "function",
            "name": "hasVoted",
            "inputs": [
                {
                    "name": "voter",
                    "type": "address",
                    "internalType": "address"
                }
            ],
            "outputs": [
                {
                    "name": "",
                    "type": "bool",
                    "internalType": "bool"
                }
            ],
            "stateMutability": "view"
        },
        {
            "type": "function",
            "name": "i_entranceFee",
            "inputs": [],
            "outputs": [
                {
                    "name": "",
                    "type": "uint256",
                    "internalType": "uint256"
                }
            ],
            "stateMutability": "view"
        },
        {
            "type": "function",
            "name": "i_voteDuration",
            "inputs": [],
            "outputs": [
                {
                    "name": "",
                    "type": "uint256",
                    "internalType": "uint256"
                }
            ],
            "stateMutability": "view"
        },
        {
            "type": "function",
            "name": "isRegistered",
            "inputs": [
                {
                    "name": "candidate",
                    "type": "address",
                    "internalType": "address"
                }
            ],
            "outputs": [
                {
                    "name": "",
                    "type": "bool",
                    "internalType": "bool"
                }
            ],
            "stateMutability": "view"
        },
        {
            "type": "function",
            "name": "register",
            "inputs": [],
            "outputs": [],
            "stateMutability": "payable"
        },
        {
            "type": "function",
            "name": "resultCalculatedStatus",
            "inputs": [],
            "outputs": [
                {
                    "name": "",
                    "type": "bool",
                    "internalType": "bool"
                }
            ],
            "stateMutability": "view"
        },
        {
            "type": "function",
            "name": "s_isRegistered",
            "inputs": [
                {
                    "name": "",
                    "type": "address",
                    "internalType": "address"
                }
            ],
            "outputs": [
                {
                    "name": "",
                    "type": "bool",
                    "internalType": "bool"
                }
            ],
            "stateMutability": "view"
        },
        {
            "type": "function",
            "name": "s_votes",
            "inputs": [
                {
                    "name": "",
                    "type": "address",
                    "internalType": "address"
                }
            ],
            "outputs": [
                {
                    "name": "",
                    "type": "uint256",
                    "internalType": "uint256"
                }
            ],
            "stateMutability": "view"
        },
        {
            "type": "function",
            "name": "s_winner",
            "inputs": [],
            "outputs": [
                {
                    "name": "",
                    "type": "address",
                    "internalType": "address"
                }
            ],
            "stateMutability": "view"
        },
        {
            "type": "function",
            "name": "vote",
            "inputs": [
                {
                    "name": "candidate",
                    "type": "address",
                    "internalType": "address"
                }
            ],
            "outputs": [],
            "stateMutability": "nonpayable"
        },
        {
            "type": "error",
            "name": "AlreadyRegistered",
            "inputs": []
        },
        {
            "type": "error",
            "name": "AlreadyVoted",
            "inputs": []
        },
        {
            "type": "error",
            "name": "CountNotOpen",
            "inputs": []
        },
        {
            "type": "error",
            "name": "IsNotCandidate",
            "inputs": []
        },
        {
            "type": "error",
            "name": "RegisterNotOpen",
            "inputs": []
        },
        {
            "type": "error",
            "name": "SendMoreEth",
            "inputs": []
        },
        {
            "type": "error",
            "name": "VoteNotOpen",
            "inputs": []
        }
    ],
    "bytecode": {
        "object": "0x60e060405234801561000f575f5ffd5b50604051611408380380611408833981810160405281019061003191906100b8565b8260a081815250508160c081815250508060808181525050425f819055505f600460016101000a81548160ff0219169083600281111561007457610073610108565b5b0217905550505050610135565b5f5ffd5b5f819050919050565b61009781610085565b81146100a1575f5ffd5b50565b5f815190506100b28161008e565b92915050565b5f5f5f606084860312156100cf576100ce610081565b5b5f6100dc868287016100a4565b93505060206100ed868287016100a4565b92505060406100fe868287016100a4565b9150509250925092565b7f4e487b71000000000000000000000000000000000000000000000000000000005f52602160045260245ffd5b60805160a05160c0516112866101825f395f818161063e0152610d8801525f81816103aa015281816104ac01526108e901525f818161092301528181610ce50152610da901526112865ff3fe6080604052600436106100f2575f3560e01c806370235f0b116100895780639daf2078116100585780639daf2078146102ee578063bc3c09c414610319578063c3c5a54714610355578063d551a50514610391576100f2565b806370235f0b146102345780637ea3e6c1146102705780637ffda1781461029a5780638b39a55a146102c4576100f2565b80632bf1784e116100c55780632bf1784e146101905780633dc452e1146101ba5780635e041f52146101e45780636dd7d8ea1461020c576100f2565b806309bc33a7146100f657806309eef43e14610120578063111962b51461015c5780631aa3a00814610186575b5f5ffd5b348015610101575f5ffd5b5061010a6103a7565b6040516101179190610e93565b60405180910390f35b34801561012b575f5ffd5b5061014660048036038101906101419190610f0a565b6103ce565b6040516101539190610f4f565b60405180910390f35b348015610167575f5ffd5b50610170610420565b60405161017d9190610fdb565b60405180910390f35b61018e610436565b005b34801561019b575f5ffd5b506101a461063c565b6040516101b19190610e93565b60405180910390f35b3480156101c5575f5ffd5b506101ce610660565b6040516101db9190611003565b60405180910390f35b3480156101ef575f5ffd5b5061020a6004803603810190610205919061103f565b610685565b005b348015610217575f5ffd5b50610232600480360381019061022d9190610f0a565b6106b2565b005b34801561023f575f5ffd5b5061025a60048036038101906102559190610f0a565b6108d2565b6040516102679190610e93565b60405180910390f35b34801561027b575f5ffd5b506102846108e7565b6040516102919190610e93565b60405180910390f35b3480156102a5575f5ffd5b506102ae61090b565b6040516102bb9190610f4f565b60405180910390f35b3480156102cf575f5ffd5b506102d8610920565b6040516102e59190610e93565b60405180910390f35b3480156102f9575f5ffd5b50610302610947565b604051610310929190611121565b60405180910390f35b348015610324575f5ffd5b5061033f600480360381019061033a9190610f0a565b6109c6565b60405161034c9190610f4f565b60405180910390f35b348015610360575f5ffd5b5061037b60048036038101906103769190610f0a565b6109e3565b6040516103889190610f4f565b60405180910390f35b34801561039c575f5ffd5b506103a5610a35565b005b5f7f0000000000000000000000000000000000000000000000000000000000000000905090565b5f60075f8373ffffffffffffffffffffffffffffffffffffffff1673ffffffffffffffffffffffffffffffffffffffff1681526020019081526020015f205f9054906101000a900460ff169050919050565b5f600460019054906101000a900460ff16905090565b61043e610ca6565b5f600281111561045157610450610f68565b5b600460019054906101000a900460ff16600281111561047357610472610f68565b5b146104aa576040517f6baaf7a500000000000000000000000000000000000000000000000000000000815260040160405180910390fd5b7f0000000000000000000000000000000000000000000000000000000000000000341015610504576040517f9a48d38100000000000000000000000000000000000000000000000000000000815260040160405180910390fd5b60065f3373ffffffffffffffffffffffffffffffffffffffff1673ffffffffffffffffffffffffffffffffffffffff1681526020019081526020015f205f9054906101000a900460ff1615610585576040517f3a81d6fc00000000000000000000000000000000000000000000000000000000815260040160405180910390fd5b600160065f3373ffffffffffffffffffffffffffffffffffffffff1673ffffffffffffffffffffffffffffffffffffffff1681526020019081526020015f205f6101000a81548160ff021916908315150217905550600333908060018154018082558091505060019003905f5260205f20015f9091909190916101000a81548173ffffffffffffffffffffffffffffffffffffffff021916908373ffffffffffffffffffffffffffffffffffffffff160217905550565b7f000000000000000000000000000000000000000000000000000000000000000081565b60025f9054906101000a900473ffffffffffffffffffffffffffffffffffffffff1681565b80600460016101000a81548160ff021916908360028111156106aa576106a9610f68565b5b021790555050565b6106ba610ca6565b600160028111156106ce576106cd610f68565b5b600460019054906101000a900460ff1660028111156106f0576106ef610f68565b5b14610727576040517f9bd375de00000000000000000000000000000000000000000000000000000000815260040160405180910390fd5b60065f8273ffffffffffffffffffffffffffffffffffffffff1673ffffffffffffffffffffffffffffffffffffffff1681526020019081526020015f205f9054906101000a900460ff166107a7576040517fca6c646800000000000000000000000000000000000000000000000000000000815260040160405180910390fd5b60075f3373ffffffffffffffffffffffffffffffffffffffff1673ffffffffffffffffffffffffffffffffffffffff1681526020019081526020015f205f9054906101000a900460ff1615610828576040517f7c9a1cf900000000000000000000000000000000000000000000000000000000815260040160405180910390fd5b600160075f3373ffffffffffffffffffffffffffffffffffffffff1673ffffffffffffffffffffffffffffffffffffffff1681526020019081526020015f205f6101000a81548160ff02191690831515021790555060055f8273ffffffffffffffffffffffffffffffffffffffff1673ffffffffffffffffffffffffffffffffffffffff1681526020019081526020015f205f8154809291906108ca9061117c565b919050555050565b6005602052805f5260405f205f915090505481565b7f000000000000000000000000000000000000000000000000000000000000000081565b5f60045f9054906101000a900460ff16905090565b5f7f0000000000000000000000000000000000000000000000000000000000000000905090565b5f606060025f9054906101000a900473ffffffffffffffffffffffffffffffffffffffff166001808054806020026020016040519081016040528092919081815260200182805480156109b757602002820191905f5260205f20905b8154815260200190600101908083116109a3575b50505050509050915091509091565b6006602052805f5260405f205f915054906101000a900460ff1681565b5f60065f8373ffffffffffffffffffffffffffffffffffffffff1673ffffffffffffffffffffffffffffffffffffffff1681526020019081526020015f205f9054906101000a900460ff169050919050565b610a3d610ca6565b600280811115610a5057610a4f610f68565b5b600460019054906101000a900460ff166002811115610a7257610a71610f68565b5b14610aa9576040517fbff32efc00000000000000000000000000000000000000000000000000000000815260040160405180910390fd5b5f5f905060038054905067ffffffffffffffff811115610acc57610acb6111c3565b5b604051908082528060200260200182016040528015610afa5781602001602082028036833780820191505090505b5060019080519060200190610b10929190610e15565b505f5f90505b600380549050811015610c0d5760055f60038381548110610b3a57610b396111f0565b5b905f5260205f20015f9054906101000a900473ffffffffffffffffffffffffffffffffffffffff1673ffffffffffffffffffffffffffffffffffffffff1673ffffffffffffffffffffffffffffffffffffffff1681526020019081526020015f205460018281548110610bb057610baf6111f0565b5b905f5260205f20018190555060018281548110610bd057610bcf6111f0565b5b905f5260205f20015460018281548110610bed57610bec6111f0565b5b905f5260205f2001541115610c00578091505b8080600101915050610b16565b5060038181548110610c2257610c216111f0565b5b905f5260205f20015f9054906101000a900473ffffffffffffffffffffffffffffffffffffffff1660025f6101000a81548173ffffffffffffffffffffffffffffffffffffffff021916908373ffffffffffffffffffffffffffffffffffffffff160217905550600160045f6101000a81548160ff02191690831515021790555050565b5f6002811115610cb957610cb8610f68565b5b600460019054906101000a900460ff166002811115610cdb57610cda610f68565b5b148015610d1357507f00000000000000000000000000000000000000000000000000000000000000005f54610d10919061121d565b42115b15610d48576001600460016101000a81548160ff02191690836002811115610d3e57610d3d610f68565b5b0217905550610e13565b60016002811115610d5c57610d5b610f68565b5b600460019054906101000a900460ff166002811115610d7e57610d7d610f68565b5b148015610de157507f00000000000000000000000000000000000000000000000000000000000000007f00000000000000000000000000000000000000000000000000000000000000005f54610dd4919061121d565b610dde919061121d565b42115b15610e12576002600460016101000a81548160ff02191690836002811115610e0c57610e0b610f68565b5b02179055505b5b565b828054828255905f5260205f20908101928215610e4f579160200282015b82811115610e4e578251825591602001919060010190610e33565b5b509050610e5c9190610e60565b5090565b5b80821115610e77575f815f905550600101610e61565b5090565b5f819050919050565b610e8d81610e7b565b82525050565b5f602082019050610ea65f830184610e84565b92915050565b5f5ffd5b5f73ffffffffffffffffffffffffffffffffffffffff82169050919050565b5f610ed982610eb0565b9050919050565b610ee981610ecf565b8114610ef3575f5ffd5b50565b5f81359050610f0481610ee0565b92915050565b5f60208284031215610f1f57610f1e610eac565b5b5f610f2c84828501610ef6565b91505092915050565b5f8115159050919050565b610f4981610f35565b82525050565b5f602082019050610f625f830184610f40565b92915050565b7f4e487b71000000000000000000000000000000000000000000000000000000005f52602160045260245ffd5b60038110610fa657610fa5610f68565b5b50565b5f819050610fb682610f95565b919050565b5f610fc582610fa9565b9050919050565b610fd581610fbb565b82525050565b5f602082019050610fee5f830184610fcc565b92915050565b610ffd81610ecf565b82525050565b5f6020820190506110165f830184610ff4565b92915050565b60038110611028575f5ffd5b50565b5f813590506110398161101c565b92915050565b5f6020828403121561105457611053610eac565b5b5f6110618482850161102b565b91505092915050565b5f81519050919050565b5f82825260208201905092915050565b5f819050602082019050919050565b61109c81610e7b565b82525050565b5f6110ad8383611093565b60208301905092915050565b5f602082019050919050565b5f6110cf8261106a565b6110d98185611074565b93506110e483611084565b805f5b838110156111145781516110fb88826110a2565b9750611106836110b9565b9250506001810190506110e7565b5085935050505092915050565b5f6040820190506111345f830185610ff4565b818103602083015261114681846110c5565b90509392505050565b7f4e487b71000000000000000000000000000000000000000000000000000000005f52601160045260245ffd5b5f61118682610e7b565b91507fffffffffffffffffffffffffffffffffffffffffffffffffffffffffffffffff82036111b8576111b761114f565b5b600182019050919050565b7f4e487b71000000000000000000000000000000000000000000000000000000005f52604160045260245ffd5b7f4e487b71000000000000000000000000000000000000000000000000000000005f52603260045260245ffd5b5f61122782610e7b565b915061123283610e7b565b925082820190508082111561124a5761124961114f565b5b9291505056fea2646970667358221220c3ea83c55e1378b76a68c5d097011cbb20e34e08a26521dd6a973aa48e4d17cc64736f6c634300081e0033",
        "linkReferences": {}
    },
    "methodIdentifiers": {
        "countPollResult()": "d551a505",
        "forceSetPhase(uint8)": "5e041f52",
        "getEntranceFee()": "09bc33a7",
        "getPollPhase()": "111962b5",
        "getPollResult()": "9daf2078",
        "getRegisterDuration()": "8b39a55a",
        "hasVoted(address)": "09eef43e",
        "i_entranceFee()": "7ea3e6c1",
        "i_voteDuration()": "2bf1784e",
        "isRegistered(address)": "c3c5a547",
        "register()": "1aa3a008",
        "resultCalculatedStatus()": "7ffda178",
        "s_isRegistered(address)": "bc3c09c4",
        "s_votes(address)": "70235f0b",
        "s_winner()": "3dc452e1",
        "vote(address)": "6dd7d8ea"
    },
    "id": 16
}